{
  "_format": "hh-sol-artifact-1",
  "contractName": "NFTMarketPlace",
  "sourceName": "contracts/NFTMarketPlace.sol",
  "abi": [
    {
      "inputs": [],
      "stateMutability": "nonpayable",
      "type": "constructor"
    },
    {
      "inputs": [
        {
          "internalType": "address",
          "name": "sender",
          "type": "address"
        },
        {
          "internalType": "uint256",
          "name": "tokenId",
          "type": "uint256"
        },
        {
          "internalType": "address",
          "name": "owner",
          "type": "address"
        }
      ],
      "name": "ERC721IncorrectOwner",
      "type": "error"
    },
    {
      "inputs": [
        {
          "internalType": "address",
          "name": "operator",
          "type": "address"
        },
        {
          "internalType": "uint256",
          "name": "tokenId",
          "type": "uint256"
        }
      ],
      "name": "ERC721InsufficientApproval",
      "type": "error"
    },
    {
      "inputs": [
        {
          "internalType": "address",
          "name": "approver",
          "type": "address"
        }
      ],
      "name": "ERC721InvalidApprover",
      "type": "error"
    },
    {
      "inputs": [
        {
          "internalType": "address",
          "name": "operator",
          "type": "address"
        }
      ],
      "name": "ERC721InvalidOperator",
      "type": "error"
    },
    {
      "inputs": [
        {
          "internalType": "address",
          "name": "owner",
          "type": "address"
        }
      ],
      "name": "ERC721InvalidOwner",
      "type": "error"
    },
    {
      "inputs": [
        {
          "internalType": "address",
          "name": "receiver",
          "type": "address"
        }
      ],
      "name": "ERC721InvalidReceiver",
      "type": "error"
    },
    {
      "inputs": [
        {
          "internalType": "address",
          "name": "sender",
          "type": "address"
        }
      ],
      "name": "ERC721InvalidSender",
      "type": "error"
    },
    {
      "inputs": [
        {
          "internalType": "uint256",
          "name": "tokenId",
          "type": "uint256"
        }
      ],
      "name": "ERC721NonexistentToken",
      "type": "error"
    },
    {
      "anonymous": false,
      "inputs": [
        {
          "indexed": true,
          "internalType": "address",
          "name": "owner",
          "type": "address"
        },
        {
          "indexed": true,
          "internalType": "address",
          "name": "approved",
          "type": "address"
        },
        {
          "indexed": true,
          "internalType": "uint256",
          "name": "tokenId",
          "type": "uint256"
        }
      ],
      "name": "Approval",
      "type": "event"
    },
    {
      "anonymous": false,
      "inputs": [
        {
          "indexed": true,
          "internalType": "address",
          "name": "owner",
          "type": "address"
        },
        {
          "indexed": true,
          "internalType": "address",
          "name": "operator",
          "type": "address"
        },
        {
          "indexed": false,
          "internalType": "bool",
          "name": "approved",
          "type": "bool"
        }
      ],
      "name": "ApprovalForAll",
      "type": "event"
    },
    {
      "anonymous": false,
      "inputs": [
        {
          "indexed": false,
          "internalType": "uint256",
          "name": "_fromTokenId",
          "type": "uint256"
        },
        {
          "indexed": false,
          "internalType": "uint256",
          "name": "_toTokenId",
          "type": "uint256"
        }
      ],
      "name": "BatchMetadataUpdate",
      "type": "event"
    },
    {
      "anonymous": false,
      "inputs": [
        {
          "indexed": false,
          "internalType": "uint256",
          "name": "_tokenId",
          "type": "uint256"
        }
      ],
      "name": "MetadataUpdate",
      "type": "event"
    },
    {
      "anonymous": false,
      "inputs": [
        {
          "indexed": true,
          "internalType": "address",
          "name": "from",
          "type": "address"
        },
        {
          "indexed": true,
          "internalType": "address",
          "name": "to",
          "type": "address"
        },
        {
          "indexed": true,
          "internalType": "uint256",
          "name": "tokenId",
          "type": "uint256"
        }
      ],
      "name": "Transfer",
      "type": "event"
    },
    {
      "anonymous": false,
      "inputs": [
        {
          "indexed": true,
          "internalType": "uint256",
          "name": "tokenId",
          "type": "uint256"
        },
        {
          "indexed": false,
          "internalType": "address",
          "name": "seller",
          "type": "address"
        },
        {
          "indexed": false,
          "internalType": "address",
          "name": "owner",
          "type": "address"
        },
        {
          "indexed": false,
          "internalType": "uint256",
          "name": "price",
          "type": "uint256"
        },
        {
          "indexed": false,
          "internalType": "bool",
          "name": "sold",
          "type": "bool"
        }
      ],
      "name": "idMarketItemCreated",
      "type": "event"
    },
    {
      "inputs": [
        {
          "internalType": "address",
          "name": "to",
          "type": "address"
        },
        {
          "internalType": "uint256",
          "name": "tokenId",
          "type": "uint256"
        }
      ],
      "name": "approve",
      "outputs": [],
      "stateMutability": "nonpayable",
      "type": "function"
    },
    {
      "inputs": [
        {
          "internalType": "address",
          "name": "owner",
          "type": "address"
        }
      ],
      "name": "balanceOf",
      "outputs": [
        {
          "internalType": "uint256",
          "name": "",
          "type": "uint256"
        }
      ],
      "stateMutability": "view",
      "type": "function"
    },
    {
      "inputs": [
        {
          "internalType": "uint256",
          "name": "tokenId",
          "type": "uint256"
        },
        {
          "internalType": "uint256",
          "name": "price",
          "type": "uint256"
        }
      ],
      "name": "createMarketItem",
      "outputs": [],
      "stateMutability": "payable",
      "type": "function"
    },
    {
      "inputs": [
        {
          "internalType": "uint256",
          "name": "tokenId",
          "type": "uint256"
        }
      ],
      "name": "createMarketItemSale",
      "outputs": [],
      "stateMutability": "payable",
      "type": "function"
    },
    {
      "inputs": [
        {
          "internalType": "string",
          "name": "tokenURI",
          "type": "string"
        },
        {
          "internalType": "uint256",
          "name": "price",
          "type": "uint256"
        }
      ],
      "name": "createToken",
      "outputs": [
        {
          "internalType": "uint256",
          "name": "",
          "type": "uint256"
        }
      ],
      "stateMutability": "payable",
      "type": "function"
    },
    {
      "inputs": [],
      "name": "fetchItemsListed",
      "outputs": [
        {
          "components": [
            {
              "internalType": "uint256",
              "name": "tokenId",
              "type": "uint256"
            },
            {
              "internalType": "address payable",
              "name": "seller",
              "type": "address"
            },
            {
              "internalType": "address payable",
              "name": "owner",
              "type": "address"
            },
            {
              "internalType": "uint256",
              "name": "price",
              "type": "uint256"
            },
            {
              "internalType": "bool",
              "name": "sold",
              "type": "bool"
            }
          ],
          "internalType": "struct NFTMarketPlace.MarketItem[]",
          "name": "",
          "type": "tuple[]"
        }
      ],
      "stateMutability": "view",
      "type": "function"
    },
    {
      "inputs": [],
      "name": "fetchMarketItem",
      "outputs": [
        {
          "components": [
            {
              "internalType": "uint256",
              "name": "tokenId",
              "type": "uint256"
            },
            {
              "internalType": "address payable",
              "name": "seller",
              "type": "address"
            },
            {
              "internalType": "address payable",
              "name": "owner",
              "type": "address"
            },
            {
              "internalType": "uint256",
              "name": "price",
              "type": "uint256"
            },
            {
              "internalType": "bool",
              "name": "sold",
              "type": "bool"
            }
          ],
          "internalType": "struct NFTMarketPlace.MarketItem[]",
          "name": "",
          "type": "tuple[]"
        }
      ],
      "stateMutability": "view",
      "type": "function"
    },
    {
      "inputs": [],
      "name": "fetchMyNFT",
      "outputs": [
        {
          "components": [
            {
              "internalType": "uint256",
              "name": "tokenId",
              "type": "uint256"
            },
            {
              "internalType": "address payable",
              "name": "seller",
              "type": "address"
            },
            {
              "internalType": "address payable",
              "name": "owner",
              "type": "address"
            },
            {
              "internalType": "uint256",
              "name": "price",
              "type": "uint256"
            },
            {
              "internalType": "bool",
              "name": "sold",
              "type": "bool"
            }
          ],
          "internalType": "struct NFTMarketPlace.MarketItem[]",
          "name": "",
          "type": "tuple[]"
        }
      ],
      "stateMutability": "view",
      "type": "function"
    },
    {
      "inputs": [
        {
          "internalType": "uint256",
          "name": "tokenId",
          "type": "uint256"
        }
      ],
      "name": "getApproved",
      "outputs": [
        {
          "internalType": "address",
          "name": "",
          "type": "address"
        }
      ],
      "stateMutability": "view",
      "type": "function"
    },
    {
      "inputs": [],
      "name": "getListingPrice",
      "outputs": [
        {
          "internalType": "uint256",
          "name": "",
          "type": "uint256"
        }
      ],
      "stateMutability": "view",
      "type": "function"
    },
    {
      "inputs": [
        {
          "internalType": "uint256",
          "name": "",
          "type": "uint256"
        }
      ],
      "name": "idMarketItem",
      "outputs": [
        {
          "internalType": "uint256",
          "name": "tokenId",
          "type": "uint256"
        },
        {
          "internalType": "address payable",
          "name": "seller",
          "type": "address"
        },
        {
          "internalType": "address payable",
          "name": "owner",
          "type": "address"
        },
        {
          "internalType": "uint256",
          "name": "price",
          "type": "uint256"
        },
        {
          "internalType": "bool",
          "name": "sold",
          "type": "bool"
        }
      ],
      "stateMutability": "view",
      "type": "function"
    },
    {
      "inputs": [
        {
          "internalType": "address",
          "name": "owner",
          "type": "address"
        },
        {
          "internalType": "address",
          "name": "operator",
          "type": "address"
        }
      ],
      "name": "isApprovedForAll",
      "outputs": [
        {
          "internalType": "bool",
          "name": "",
          "type": "bool"
        }
      ],
      "stateMutability": "view",
      "type": "function"
    },
    {
      "inputs": [],
      "name": "listingPrice",
      "outputs": [
        {
          "internalType": "uint256",
          "name": "",
          "type": "uint256"
        }
      ],
      "stateMutability": "view",
      "type": "function"
    },
    {
      "inputs": [],
      "name": "name",
      "outputs": [
        {
          "internalType": "string",
          "name": "",
          "type": "string"
        }
      ],
      "stateMutability": "view",
      "type": "function"
    },
    {
      "inputs": [],
      "name": "owner",
      "outputs": [
        {
          "internalType": "address payable",
          "name": "",
          "type": "address"
        }
      ],
      "stateMutability": "view",
      "type": "function"
    },
    {
      "inputs": [
        {
          "internalType": "uint256",
          "name": "tokenId",
          "type": "uint256"
        }
      ],
      "name": "ownerOf",
      "outputs": [
        {
          "internalType": "address",
          "name": "",
          "type": "address"
        }
      ],
      "stateMutability": "view",
      "type": "function"
    },
    {
      "inputs": [
        {
          "internalType": "uint256",
          "name": "tokenId",
          "type": "uint256"
        },
        {
          "internalType": "uint256",
          "name": "price",
          "type": "uint256"
        }
      ],
      "name": "reSellToken",
      "outputs": [],
      "stateMutability": "payable",
      "type": "function"
    },
    {
      "inputs": [
        {
          "internalType": "address",
          "name": "from",
          "type": "address"
        },
        {
          "internalType": "address",
          "name": "to",
          "type": "address"
        },
        {
          "internalType": "uint256",
          "name": "tokenId",
          "type": "uint256"
        }
      ],
      "name": "safeTransferFrom",
      "outputs": [],
      "stateMutability": "nonpayable",
      "type": "function"
    },
    {
      "inputs": [
        {
          "internalType": "address",
          "name": "from",
          "type": "address"
        },
        {
          "internalType": "address",
          "name": "to",
          "type": "address"
        },
        {
          "internalType": "uint256",
          "name": "tokenId",
          "type": "uint256"
        },
        {
          "internalType": "bytes",
          "name": "data",
          "type": "bytes"
        }
      ],
      "name": "safeTransferFrom",
      "outputs": [],
      "stateMutability": "nonpayable",
      "type": "function"
    },
    {
      "inputs": [
        {
          "internalType": "address",
          "name": "operator",
          "type": "address"
        },
        {
          "internalType": "bool",
          "name": "approved",
          "type": "bool"
        }
      ],
      "name": "setApprovalForAll",
      "outputs": [],
      "stateMutability": "nonpayable",
      "type": "function"
    },
    {
      "inputs": [
        {
          "internalType": "bytes4",
          "name": "interfaceId",
          "type": "bytes4"
        }
      ],
      "name": "supportsInterface",
      "outputs": [
        {
          "internalType": "bool",
          "name": "",
          "type": "bool"
        }
      ],
      "stateMutability": "view",
      "type": "function"
    },
    {
      "inputs": [],
      "name": "symbol",
      "outputs": [
        {
          "internalType": "string",
          "name": "",
          "type": "string"
        }
      ],
      "stateMutability": "view",
      "type": "function"
    },
    {
      "inputs": [
        {
          "internalType": "uint256",
          "name": "tokenId",
          "type": "uint256"
        }
      ],
      "name": "tokenURI",
      "outputs": [
        {
          "internalType": "string",
          "name": "",
          "type": "string"
        }
      ],
      "stateMutability": "view",
      "type": "function"
    },
    {
      "inputs": [
        {
          "internalType": "address",
          "name": "from",
          "type": "address"
        },
        {
          "internalType": "address",
          "name": "to",
          "type": "address"
        },
        {
          "internalType": "uint256",
          "name": "tokenId",
          "type": "uint256"
        }
      ],
      "name": "transferFrom",
      "outputs": [],
      "stateMutability": "nonpayable",
      "type": "function"
    },
    {
      "inputs": [
        {
          "internalType": "uint256",
          "name": "_listingPrice",
          "type": "uint256"
        }
      ],
      "name": "updateListingPrice",
      "outputs": [],
      "stateMutability": "payable",
      "type": "function"
    }
  ],
  "bytecode": "0x60806040526608e1bc9bf04000600b553480156200001c57600080fd5b506040518060400160405280601381526020017f4e4654204d657461566572736520546f6b656e000000000000000000000000008152506040518060400160405280600581526020017f4d594e465400000000000000000000000000000000000000000000000000000081525081600090816200009a919062000370565b508060019081620000ac919062000370565b50505033600c60006101000a81548173ffffffffffffffffffffffffffffffffffffffff021916908373ffffffffffffffffffffffffffffffffffffffff16021790555062000457565b600081519050919050565b7f4e487b7100000000000000000000000000000000000000000000000000000000600052604160045260246000fd5b7f4e487b7100000000000000000000000000000000000000000000000000000000600052602260045260246000fd5b600060028204905060018216806200017857607f821691505b6020821081036200018e576200018d62000130565b5b50919050565b60008190508160005260206000209050919050565b60006020601f8301049050919050565b600082821b905092915050565b600060088302620001f87fffffffffffffffffffffffffffffffffffffffffffffffffffffffffffffffff82620001b9565b620002048683620001b9565b95508019841693508086168417925050509392505050565b6000819050919050565b6000819050919050565b6000620002516200024b62000245846200021c565b62000226565b6200021c565b9050919050565b6000819050919050565b6200026d8362000230565b620002856200027c8262000258565b848454620001c6565b825550505050565b600090565b6200029c6200028d565b620002a981848462000262565b505050565b5b81811015620002d157620002c560008262000292565b600181019050620002af565b5050565b601f8211156200032057620002ea8162000194565b620002f584620001a9565b8101602085101562000305578190505b6200031d6200031485620001a9565b830182620002ae565b50505b505050565b600082821c905092915050565b6000620003456000198460080262000325565b1980831691505092915050565b600062000360838362000332565b9150826002028217905092915050565b6200037b82620000f6565b67ffffffffffffffff81111562000397576200039662000101565b5b620003a382546200015f565b620003b0828285620002d5565b600060209050601f831160018114620003e85760008415620003d3578287015190505b620003df858262000352565b8655506200044f565b601f198416620003f88662000194565b60005b828110156200042257848901518255600182019150602085019450602081019050620003fb565b868310156200044257848901516200043e601f89168262000332565b8355505b6001600288020188555050505b505050505050565b613ffe80620004676000396000f3fe6080604052600436106101665760003560e01c806372b3b620116100d1578063ae677aa31161008a578063c18763f711610064578063c18763f71461050f578063c78f19f91461053a578063c87b56dd14610565578063e985e9c5146105a257610166565b8063ae677aa3146104ae578063b6e12f93146104ca578063b88d4fde146104e657610166565b806372b3b620146103b857806385535b25146103e85780638da5cb5b146104045780638fafd0211461042f57806395d89b411461045a578063a22cb4651461048557610166565b806323b872dd1161012357806323b872dd146102a5578063361c1995146102ce57806342842e0e146102ea57806345f8fa80146103135780636352211e1461033e57806370a082311461037b57610166565b806301ffc9a71461016b57806306fdde03146101a8578063081812fc146101d3578063087ae8a214610210578063095ea7b31461025157806312e855851461027a575b600080fd5b34801561017757600080fd5b50610192600480360381019061018d9190612e62565b6105df565b60405161019f9190612eaa565b60405180910390f35b3480156101b457600080fd5b506101bd610640565b6040516101ca9190612f55565b60405180910390f35b3480156101df57600080fd5b506101fa60048036038101906101f59190612fad565b6106d2565b604051610207919061301b565b60405180910390f35b34801561021c57600080fd5b5061023760048036038101906102329190612fad565b6106ee565b604051610248959493929190613066565b60405180910390f35b34801561025d57600080fd5b50610278600480360381019061027391906130e5565b610771565b005b34801561028657600080fd5b5061028f610787565b60405161029c9190613125565b60405180910390f35b3480156102b157600080fd5b506102cc60048036038101906102c79190613140565b610791565b005b6102e860048036038101906102e39190613193565b610893565b005b3480156102f657600080fd5b50610311600480360381019061030c9190613140565b610a96565b005b34801561031f57600080fd5b50610328610ab6565b6040516103359190613317565b60405180910390f35b34801561034a57600080fd5b5061036560048036038101906103609190612fad565b610da2565b604051610372919061301b565b60405180910390f35b34801561038757600080fd5b506103a2600480360381019061039d9190613339565b610db4565b6040516103af9190613125565b60405180910390f35b6103d260048036038101906103cd919061349b565b610e6e565b6040516103df9190613125565b60405180910390f35b61040260048036038101906103fd9190613193565b610ec4565b005b34801561041057600080fd5b506104196110c4565b60405161042691906134f7565b60405180910390f35b34801561043b57600080fd5b506104446110ea565b6040516104519190613317565b60405180910390f35b34801561046657600080fd5b5061046f611308565b60405161047c9190612f55565b60405180910390f35b34801561049157600080fd5b506104ac60048036038101906104a7919061353e565b61139a565b005b6104c860048036038101906104c39190612fad565b6113b0565b005b6104e460048036038101906104df9190612fad565b61144a565b005b3480156104f257600080fd5b5061050d6004803603810190610508919061361f565b61168d565b005b34801561051b57600080fd5b506105246116aa565b6040516105319190613317565b60405180910390f35b34801561054657600080fd5b5061054f611996565b60405161055c9190613125565b60405180910390f35b34801561057157600080fd5b5061058c60048036038101906105879190612fad565b61199c565b6040516105999190612f55565b60405180910390f35b3480156105ae57600080fd5b506105c960048036038101906105c491906136a2565b611aaf565b6040516105d69190612eaa565b60405180910390f35b6000634906490660e01b7bffffffffffffffffffffffffffffffffffffffffffffffffffffffff1916827bffffffffffffffffffffffffffffffffffffffffffffffffffffffff19161480610639575061063882611b43565b5b9050919050565b60606000805461064f90613711565b80601f016020809104026020016040519081016040528092919081815260200182805461067b90613711565b80156106c85780601f1061069d576101008083540402835291602001916106c8565b820191906000526020600020905b8154815290600101906020018083116106ab57829003601f168201915b5050505050905090565b60006106dd82611c25565b506106e782611cad565b9050919050565b600d6020528060005260406000206000915090508060000154908060010160009054906101000a900473ffffffffffffffffffffffffffffffffffffffff16908060020160009054906101000a900473ffffffffffffffffffffffffffffffffffffffff16908060030154908060040160009054906101000a900460ff16905085565b610783828261077e611cea565b611cf2565b5050565b6000600b54905090565b600073ffffffffffffffffffffffffffffffffffffffff168273ffffffffffffffffffffffffffffffffffffffff16036108035760006040517f64a0ae920000000000000000000000000000000000000000000000000000000081526004016107fa919061301b565b60405180910390fd5b60006108178383610812611cea565b611d04565b90508373ffffffffffffffffffffffffffffffffffffffff168173ffffffffffffffffffffffffffffffffffffffff161461088d578382826040517f64283d7b00000000000000000000000000000000000000000000000000000000815260040161088493929190613742565b60405180910390fd5b50505050565b600081116108d6576040517f08c379a00000000000000000000000000000000000000000000000000000000081526004016108cd906137c5565b60405180910390fd5b600b54341461091a576040517f08c379a000000000000000000000000000000000000000000000000000000000815260040161091190613857565b60405180910390fd5b6040518060a001604052808381526020013373ffffffffffffffffffffffffffffffffffffffff1681526020013073ffffffffffffffffffffffffffffffffffffffff16815260200182815260200160001515815250600d60008481526020019081526020016000206000820151816000015560208201518160010160006101000a81548173ffffffffffffffffffffffffffffffffffffffff021916908373ffffffffffffffffffffffffffffffffffffffff16021790555060408201518160020160006101000a81548173ffffffffffffffffffffffffffffffffffffffff021916908373ffffffffffffffffffffffffffffffffffffffff1602179055506060820151816003015560808201518160040160006101000a81548160ff021916908315150217905550905050610a53333084611f1e565b817fdebdb32cb5230ab727c9c361b16fdb2015df225c10e6a3e7f60ecd5dc5be45163330846000604051610a8a9493929190613877565b60405180910390a25050565b610ab18383836040518060200160405280600081525061168d565b505050565b60606000610ac4600761208b565b905060008060005b83811015610b6c573373ffffffffffffffffffffffffffffffffffffffff16600d6000600184610afc91906138eb565b815260200190815260200160002060010160009054906101000a900473ffffffffffffffffffffffffffffffffffffffff1673ffffffffffffffffffffffffffffffffffffffff1603610b5957600183610b5691906138eb565b92505b8080610b649061391f565b915050610acc565b5060008267ffffffffffffffff811115610b8957610b88613370565b5b604051908082528060200260200182016040528015610bc257816020015b610baf612d99565b815260200190600190039081610ba75790505b50905060005b84811015610d97573373ffffffffffffffffffffffffffffffffffffffff16600d6000600184610bf891906138eb565b815260200190815260200160002060010160009054906101000a900473ffffffffffffffffffffffffffffffffffffffff1673ffffffffffffffffffffffffffffffffffffffff1603610d84576000600182610c5491906138eb565b90506000600d60008381526020019081526020016000209050806040518060a0016040529081600082015481526020016001820160009054906101000a900473ffffffffffffffffffffffffffffffffffffffff1673ffffffffffffffffffffffffffffffffffffffff1673ffffffffffffffffffffffffffffffffffffffff1681526020016002820160009054906101000a900473ffffffffffffffffffffffffffffffffffffffff1673ffffffffffffffffffffffffffffffffffffffff1673ffffffffffffffffffffffffffffffffffffffff168152602001600382015481526020016004820160009054906101000a900460ff161515151581525050848681518110610d6757610d66613967565b5b6020026020010181905250600185610d7f91906138eb565b945050505b8080610d8f9061391f565b915050610bc8565b508094505050505090565b6000610dad82611c25565b9050919050565b60008073ffffffffffffffffffffffffffffffffffffffff168273ffffffffffffffffffffffffffffffffffffffff1603610e275760006040517f89c62b64000000000000000000000000000000000000000000000000000000008152600401610e1e919061301b565b60405180910390fd5b600360008373ffffffffffffffffffffffffffffffffffffffff1673ffffffffffffffffffffffffffffffffffffffff168152602001908152602001600020549050919050565b6000610e8d610e7d600761208b565b60076120a090919063ffffffff16565b506000610e9a600761208b565b9050610ea633826120ba565b610eb081856121b3565b610eba8184610893565b8091505092915050565b3373ffffffffffffffffffffffffffffffffffffffff16600d600084815260200190815260200160002060020160009054906101000a900473ffffffffffffffffffffffffffffffffffffffff1673ffffffffffffffffffffffffffffffffffffffff1614610f68576040517f08c379a0000000000000000000000000000000000000000000000000000000008152600401610f5f90613a08565b60405180910390fd5b600b543414610fac576040517f08c379a0000000000000000000000000000000000000000000000000000000008152600401610fa390613857565b60405180910390fd5b6000600d600084815260200190815260200160002060040160006101000a81548160ff02191690831515021790555080600d60008481526020019081526020016000206003018190555033600d600084815260200190815260200160002060010160006101000a81548173ffffffffffffffffffffffffffffffffffffffff021916908373ffffffffffffffffffffffffffffffffffffffff16021790555030600d600084815260200190815260200160002060020160006101000a81548173ffffffffffffffffffffffffffffffffffffffff021916908373ffffffffffffffffffffffffffffffffffffffff1602179055506110b482600961220f90919063ffffffff16565b506110c0333084611f1e565b5050565b600c60009054906101000a900473ffffffffffffffffffffffffffffffffffffffff1681565b606060006110f8600761208b565b90506000611106600961208b565b826111119190613a28565b90506000808267ffffffffffffffff8111156111305761112f613370565b5b60405190808252806020026020018201604052801561116957816020015b611156612d99565b81526020019060019003908161114e5790505b50905060005b848110156112fd57600d600060018361118891906138eb565b815260200190815260200160002060040160009054906101000a900460ff166112ea5760006001826111ba91906138eb565b90506000600d60008381526020019081526020016000209050806040518060a0016040529081600082015481526020016001820160009054906101000a900473ffffffffffffffffffffffffffffffffffffffff1673ffffffffffffffffffffffffffffffffffffffff1673ffffffffffffffffffffffffffffffffffffffff1681526020016002820160009054906101000a900473ffffffffffffffffffffffffffffffffffffffff1673ffffffffffffffffffffffffffffffffffffffff1673ffffffffffffffffffffffffffffffffffffffff168152602001600382015481526020016004820160009054906101000a900460ff1615151515815250508486815181106112cd576112cc613967565b5b60200260200101819052506001856112e591906138eb565b945050505b80806112f59061391f565b91505061116f565b508094505050505090565b60606001805461131790613711565b80601f016020809104026020016040519081016040528092919081815260200182805461134390613711565b80156113905780601f1061136557610100808354040283529160200191611390565b820191906000526020600020905b81548152906001019060200180831161137357829003601f168201915b5050505050905090565b6113ac6113a5611cea565b8383612229565b5050565b600c60009054906101000a900473ffffffffffffffffffffffffffffffffffffffff1673ffffffffffffffffffffffffffffffffffffffff163373ffffffffffffffffffffffffffffffffffffffff1614611440576040517f08c379a000000000000000000000000000000000000000000000000000000000815260040161143790613ace565b60405180910390fd5b80600b8190555050565b6000600d60008381526020019081526020016000206003015490508034146114a7576040517f08c379a000000000000000000000000000000000000000000000000000000000815260040161149e90613b60565b60405180910390fd5b33600d600084815260200190815260200160002060020160006101000a81548173ffffffffffffffffffffffffffffffffffffffff021916908373ffffffffffffffffffffffffffffffffffffffff1602179055506001600d600084815260200190815260200160002060040160006101000a81548160ff0219169083151502179055506000600d600084815260200190815260200160002060020160006101000a81548173ffffffffffffffffffffffffffffffffffffffff021916908373ffffffffffffffffffffffffffffffffffffffff1602179055506115958260096120a090919063ffffffff16565b506115a1303384611f1e565b600c60009054906101000a900473ffffffffffffffffffffffffffffffffffffffff1673ffffffffffffffffffffffffffffffffffffffff166108fc600b549081150290604051600060405180830381858888f1935050505015801561160b573d6000803e3d6000fd5b50600d600083815260200190815260200160002060010160009054906101000a900473ffffffffffffffffffffffffffffffffffffffff1673ffffffffffffffffffffffffffffffffffffffff166108fc349081150290604051600060405180830381858888f19350505050158015611688573d6000803e3d6000fd5b505050565b611698848484610791565b6116a484848484612398565b50505050565b606060006116b8600761208b565b905060008060005b83811015611760573373ffffffffffffffffffffffffffffffffffffffff16600d60006001846116f091906138eb565b815260200190815260200160002060020160009054906101000a900473ffffffffffffffffffffffffffffffffffffffff1673ffffffffffffffffffffffffffffffffffffffff160361174d5760018361174a91906138eb565b92505b80806117589061391f565b9150506116c0565b5060008267ffffffffffffffff81111561177d5761177c613370565b5b6040519080825280602002602001820160405280156117b657816020015b6117a3612d99565b81526020019060019003908161179b5790505b50905060005b8481101561198b573373ffffffffffffffffffffffffffffffffffffffff16600d60006001846117ec91906138eb565b815260200190815260200160002060020160009054906101000a900473ffffffffffffffffffffffffffffffffffffffff1673ffffffffffffffffffffffffffffffffffffffff160361197857600060018261184891906138eb565b90506000600d60008381526020019081526020016000209050806040518060a0016040529081600082015481526020016001820160009054906101000a900473ffffffffffffffffffffffffffffffffffffffff1673ffffffffffffffffffffffffffffffffffffffff1673ffffffffffffffffffffffffffffffffffffffff1681526020016002820160009054906101000a900473ffffffffffffffffffffffffffffffffffffffff1673ffffffffffffffffffffffffffffffffffffffff1673ffffffffffffffffffffffffffffffffffffffff168152602001600382015481526020016004820160009054906101000a900460ff16151515158152505084868151811061195b5761195a613967565b5b602002602001018190525060018561197391906138eb565b945050505b80806119839061391f565b9150506117bc565b508094505050505090565b600b5481565b60606119a782611c25565b5060006006600084815260200190815260200160002080546119c890613711565b80601f01602080910402602001604051908101604052809291908181526020018280546119f490613711565b8015611a415780601f10611a1657610100808354040283529160200191611a41565b820191906000526020600020905b815481529060010190602001808311611a2457829003601f168201915b505050505090506000611a5261254f565b90506000815103611a67578192505050611aaa565b600082511115611a9c578082604051602001611a84929190613bbc565b60405160208183030381529060405292505050611aaa565b611aa584612566565b925050505b919050565b6000600560008473ffffffffffffffffffffffffffffffffffffffff1673ffffffffffffffffffffffffffffffffffffffff16815260200190815260200160002060008373ffffffffffffffffffffffffffffffffffffffff1673ffffffffffffffffffffffffffffffffffffffff16815260200190815260200160002060009054906101000a900460ff16905092915050565b60007f80ac58cd000000000000000000000000000000000000000000000000000000007bffffffffffffffffffffffffffffffffffffffffffffffffffffffff1916827bffffffffffffffffffffffffffffffffffffffffffffffffffffffff19161480611c0e57507f5b5e139f000000000000000000000000000000000000000000000000000000007bffffffffffffffffffffffffffffffffffffffffffffffffffffffff1916827bffffffffffffffffffffffffffffffffffffffffffffffffffffffff1916145b80611c1e5750611c1d826125cf565b5b9050919050565b600080611c3183612639565b9050600073ffffffffffffffffffffffffffffffffffffffff168173ffffffffffffffffffffffffffffffffffffffff1603611ca457826040517f7e273289000000000000000000000000000000000000000000000000000000008152600401611c9b9190613125565b60405180910390fd5b80915050919050565b60006004600083815260200190815260200160002060009054906101000a900473ffffffffffffffffffffffffffffffffffffffff169050919050565b600033905090565b611cff8383836001612676565b505050565b600080611d1084612639565b9050600073ffffffffffffffffffffffffffffffffffffffff168373ffffffffffffffffffffffffffffffffffffffff1614611d5257611d5181848661283b565b5b600073ffffffffffffffffffffffffffffffffffffffff168173ffffffffffffffffffffffffffffffffffffffff1614611de357611d94600085600080612676565b6001600360008373ffffffffffffffffffffffffffffffffffffffff1673ffffffffffffffffffffffffffffffffffffffff168152602001908152602001600020600082825403925050819055505b600073ffffffffffffffffffffffffffffffffffffffff168573ffffffffffffffffffffffffffffffffffffffff1614611e66576001600360008773ffffffffffffffffffffffffffffffffffffffff1673ffffffffffffffffffffffffffffffffffffffff168152602001908152602001600020600082825401925050819055505b846002600086815260200190815260200160002060006101000a81548173ffffffffffffffffffffffffffffffffffffffff021916908373ffffffffffffffffffffffffffffffffffffffff160217905550838573ffffffffffffffffffffffffffffffffffffffff168273ffffffffffffffffffffffffffffffffffffffff167fddf252ad1be2c89b69c2b068fc378daa952ba7f163c4a11628f55a4df523b3ef60405160405180910390a4809150509392505050565b600073ffffffffffffffffffffffffffffffffffffffff168273ffffffffffffffffffffffffffffffffffffffff1603611f905760006040517f64a0ae92000000000000000000000000000000000000000000000000000000008152600401611f87919061301b565b60405180910390fd5b6000611f9e83836000611d04565b9050600073ffffffffffffffffffffffffffffffffffffffff168173ffffffffffffffffffffffffffffffffffffffff160361201157816040517f7e2732890000000000000000000000000000000000000000000000000000000081526004016120089190613125565b60405180910390fd5b8373ffffffffffffffffffffffffffffffffffffffff168173ffffffffffffffffffffffffffffffffffffffff1614612085578382826040517f64283d7b00000000000000000000000000000000000000000000000000000000815260040161207c93929190613742565b60405180910390fd5b50505050565b6000612099826000016128ff565b9050919050565b60006120b2836000018360001b612910565b905092915050565b600073ffffffffffffffffffffffffffffffffffffffff168273ffffffffffffffffffffffffffffffffffffffff160361212c5760006040517f64a0ae92000000000000000000000000000000000000000000000000000000008152600401612123919061301b565b60405180910390fd5b600061213a83836000611d04565b9050600073ffffffffffffffffffffffffffffffffffffffff168173ffffffffffffffffffffffffffffffffffffffff16146121ae5760006040517f73c6ac6e0000000000000000000000000000000000000000000000000000000081526004016121a5919061301b565b60405180910390fd5b505050565b806006600084815260200190815260200160002090816121d39190613d8c565b507ff8e1a15aba9398e019f0b49df1a4fde98ee17ae345cb5f6b5e2c27f5033e8ce7826040516122039190613125565b60405180910390a15050565b6000612221836000018360001b612980565b905092915050565b600073ffffffffffffffffffffffffffffffffffffffff168273ffffffffffffffffffffffffffffffffffffffff160361229a57816040517f5b08ba18000000000000000000000000000000000000000000000000000000008152600401612291919061301b565b60405180910390fd5b80600560008573ffffffffffffffffffffffffffffffffffffffff1673ffffffffffffffffffffffffffffffffffffffff16815260200190815260200160002060008473ffffffffffffffffffffffffffffffffffffffff1673ffffffffffffffffffffffffffffffffffffffff16815260200190815260200160002060006101000a81548160ff0219169083151502179055508173ffffffffffffffffffffffffffffffffffffffff168373ffffffffffffffffffffffffffffffffffffffff167f17307eab39ab6107e8899845ad3d59bd9653f200f220920489ca2b5937696c318360405161238b9190612eaa565b60405180910390a3505050565b60008373ffffffffffffffffffffffffffffffffffffffff163b1115612549578273ffffffffffffffffffffffffffffffffffffffff1663150b7a026123dc611cea565b8685856040518563ffffffff1660e01b81526004016123fe9493929190613eb3565b6020604051808303816000875af192505050801561243a57506040513d601f19601f820116820180604052508101906124379190613f14565b60015b6124be573d806000811461246a576040519150601f19603f3d011682016040523d82523d6000602084013e61246f565b606091505b5060008151036124b657836040517f64a0ae920000000000000000000000000000000000000000000000000000000081526004016124ad919061301b565b60405180910390fd5b805181602001fd5b63150b7a0260e01b7bffffffffffffffffffffffffffffffffffffffffffffffffffffffff1916817bffffffffffffffffffffffffffffffffffffffffffffffffffffffff19161461254757836040517f64a0ae9200000000000000000000000000000000000000000000000000000000815260040161253e919061301b565b60405180910390fd5b505b50505050565b606060405180602001604052806000815250905090565b606061257182611c25565b50600061257c61254f565b9050600081511161259c57604051806020016040528060008152506125c7565b806125a684612a94565b6040516020016125b7929190613bbc565b6040516020818303038152906040525b915050919050565b60007f01ffc9a7000000000000000000000000000000000000000000000000000000007bffffffffffffffffffffffffffffffffffffffffffffffffffffffff1916827bffffffffffffffffffffffffffffffffffffffffffffffffffffffff1916149050919050565b60006002600083815260200190815260200160002060009054906101000a900473ffffffffffffffffffffffffffffffffffffffff169050919050565b80806126af5750600073ffffffffffffffffffffffffffffffffffffffff168273ffffffffffffffffffffffffffffffffffffffff1614155b156127e35760006126bf84611c25565b9050600073ffffffffffffffffffffffffffffffffffffffff168373ffffffffffffffffffffffffffffffffffffffff161415801561272a57508273ffffffffffffffffffffffffffffffffffffffff168173ffffffffffffffffffffffffffffffffffffffff1614155b801561273d575061273b8184611aaf565b155b1561277f57826040517fa9fbf51f000000000000000000000000000000000000000000000000000000008152600401612776919061301b565b60405180910390fd5b81156127e157838573ffffffffffffffffffffffffffffffffffffffff168273ffffffffffffffffffffffffffffffffffffffff167f8c5be1e5ebec7d5bd14f71427d1e84f3dd0314c0f7b2291e5b200ac8c7c3b92560405160405180910390a45b505b836004600085815260200190815260200160002060006101000a81548173ffffffffffffffffffffffffffffffffffffffff021916908373ffffffffffffffffffffffffffffffffffffffff16021790555050505050565b612846838383612b62565b6128fa57600073ffffffffffffffffffffffffffffffffffffffff168373ffffffffffffffffffffffffffffffffffffffff16036128bb57806040517f7e2732890000000000000000000000000000000000000000000000000000000081526004016128b29190613125565b60405180910390fd5b81816040517f177e802f0000000000000000000000000000000000000000000000000000000081526004016128f1929190613f41565b60405180910390fd5b505050565b600081600001805490509050919050565b600061291c8383612c23565b61297557826000018290806001815401808255809150506001900390600052602060002001600090919091909150558260000180549050836001016000848152602001908152602001600020819055506001905061297a565b600090505b92915050565b60008083600101600084815260200190815260200160002054905060008114612a885760006001826129b29190613a28565b90506000600186600001805490506129ca9190613a28565b9050808214612a395760008660000182815481106129eb576129ea613967565b5b9060005260206000200154905080876000018481548110612a0f57612a0e613967565b5b90600052602060002001819055508387600101600083815260200190815260200160002081905550505b85600001805480612a4d57612a4c613f6a565b5b600190038181906000526020600020016000905590558560010160008681526020019081526020016000206000905560019350505050612a8e565b60009150505b92915050565b606060006001612aa384612c46565b01905060008167ffffffffffffffff811115612ac257612ac1613370565b5b6040519080825280601f01601f191660200182016040528015612af45781602001600182028036833780820191505090505b509050600082602001820190505b600115612b57578080600190039150507f3031323334353637383961626364656600000000000000000000000000000000600a86061a8153600a8581612b4b57612b4a613f99565b5b04945060008503612b02575b819350505050919050565b60008073ffffffffffffffffffffffffffffffffffffffff168373ffffffffffffffffffffffffffffffffffffffff1614158015612c1a57508273ffffffffffffffffffffffffffffffffffffffff168473ffffffffffffffffffffffffffffffffffffffff161480612bdb5750612bda8484611aaf565b5b80612c1957508273ffffffffffffffffffffffffffffffffffffffff16612c0183611cad565b73ffffffffffffffffffffffffffffffffffffffff16145b5b90509392505050565b600080836001016000848152602001908152602001600020541415905092915050565b600080600090507a184f03e93ff9f4daa797ed6e38ed64bf6a1f0100000000000000008310612ca4577a184f03e93ff9f4daa797ed6e38ed64bf6a1f0100000000000000008381612c9a57612c99613f99565b5b0492506040810190505b6d04ee2d6d415b85acef81000000008310612ce1576d04ee2d6d415b85acef81000000008381612cd757612cd6613f99565b5b0492506020810190505b662386f26fc100008310612d1057662386f26fc100008381612d0657612d05613f99565b5b0492506010810190505b6305f5e1008310612d39576305f5e1008381612d2f57612d2e613f99565b5b0492506008810190505b6127108310612d5e576127108381612d5457612d53613f99565b5b0492506004810190505b60648310612d815760648381612d7757612d76613f99565b5b0492506002810190505b600a8310612d90576001810190505b80915050919050565b6040518060a0016040528060008152602001600073ffffffffffffffffffffffffffffffffffffffff168152602001600073ffffffffffffffffffffffffffffffffffffffff168152602001600081526020016000151581525090565b6000604051905090565b600080fd5b600080fd5b60007fffffffff0000000000000000000000000000000000000000000000000000000082169050919050565b612e3f81612e0a565b8114612e4a57600080fd5b50565b600081359050612e5c81612e36565b92915050565b600060208284031215612e7857612e77612e00565b5b6000612e8684828501612e4d565b91505092915050565b60008115159050919050565b612ea481612e8f565b82525050565b6000602082019050612ebf6000830184612e9b565b92915050565b600081519050919050565b600082825260208201905092915050565b60005b83811015612eff578082015181840152602081019050612ee4565b60008484015250505050565b6000601f19601f8301169050919050565b6000612f2782612ec5565b612f318185612ed0565b9350612f41818560208601612ee1565b612f4a81612f0b565b840191505092915050565b60006020820190508181036000830152612f6f8184612f1c565b905092915050565b6000819050919050565b612f8a81612f77565b8114612f9557600080fd5b50565b600081359050612fa781612f81565b92915050565b600060208284031215612fc357612fc2612e00565b5b6000612fd184828501612f98565b91505092915050565b600073ffffffffffffffffffffffffffffffffffffffff82169050919050565b600061300582612fda565b9050919050565b61301581612ffa565b82525050565b6000602082019050613030600083018461300c565b92915050565b61303f81612f77565b82525050565b600061305082612fda565b9050919050565b61306081613045565b82525050565b600060a08201905061307b6000830188613036565b6130886020830187613057565b6130956040830186613057565b6130a26060830185613036565b6130af6080830184612e9b565b9695505050505050565b6130c281612ffa565b81146130cd57600080fd5b50565b6000813590506130df816130b9565b92915050565b600080604083850312156130fc576130fb612e00565b5b600061310a858286016130d0565b925050602061311b85828601612f98565b9150509250929050565b600060208201905061313a6000830184613036565b92915050565b60008060006060848603121561315957613158612e00565b5b6000613167868287016130d0565b9350506020613178868287016130d0565b925050604061318986828701612f98565b9150509250925092565b600080604083850312156131aa576131a9612e00565b5b60006131b885828601612f98565b92505060206131c985828601612f98565b9150509250929050565b600081519050919050565b600082825260208201905092915050565b6000819050602082019050919050565b61320881612f77565b82525050565b61321781613045565b82525050565b61322681612e8f565b82525050565b60a08201600082015161324260008501826131ff565b506020820151613255602085018261320e565b506040820151613268604085018261320e565b50606082015161327b60608501826131ff565b50608082015161328e608085018261321d565b50505050565b60006132a0838361322c565b60a08301905092915050565b6000602082019050919050565b60006132c4826131d3565b6132ce81856131de565b93506132d9836131ef565b8060005b8381101561330a5781516132f18882613294565b97506132fc836132ac565b9250506001810190506132dd565b5085935050505092915050565b6000602082019050818103600083015261333181846132b9565b905092915050565b60006020828403121561334f5761334e612e00565b5b600061335d848285016130d0565b91505092915050565b600080fd5b600080fd5b7f4e487b7100000000000000000000000000000000000000000000000000000000600052604160045260246000fd5b6133a882612f0b565b810181811067ffffffffffffffff821117156133c7576133c6613370565b5b80604052505050565b60006133da612df6565b90506133e6828261339f565b919050565b600067ffffffffffffffff82111561340657613405613370565b5b61340f82612f0b565b9050602081019050919050565b82818337600083830152505050565b600061343e613439846133eb565b6133d0565b90508281526020810184848401111561345a5761345961336b565b5b61346584828561341c565b509392505050565b600082601f83011261348257613481613366565b5b813561349284826020860161342b565b91505092915050565b600080604083850312156134b2576134b1612e00565b5b600083013567ffffffffffffffff8111156134d0576134cf612e05565b5b6134dc8582860161346d565b92505060206134ed85828601612f98565b9150509250929050565b600060208201905061350c6000830184613057565b92915050565b61351b81612e8f565b811461352657600080fd5b50565b60008135905061353881613512565b92915050565b6000806040838503121561355557613554612e00565b5b6000613563858286016130d0565b925050602061357485828601613529565b9150509250929050565b600067ffffffffffffffff82111561359957613598613370565b5b6135a282612f0b565b9050602081019050919050565b60006135c26135bd8461357e565b6133d0565b9050828152602081018484840111156135de576135dd61336b565b5b6135e984828561341c565b509392505050565b600082601f83011261360657613605613366565b5b81356136168482602086016135af565b91505092915050565b6000806000806080858703121561363957613638612e00565b5b6000613647878288016130d0565b9450506020613658878288016130d0565b935050604061366987828801612f98565b925050606085013567ffffffffffffffff81111561368a57613689612e05565b5b613696878288016135f1565b91505092959194509250565b600080604083850312156136b9576136b8612e00565b5b60006136c7858286016130d0565b92505060206136d8858286016130d0565b9150509250929050565b7f4e487b7100000000000000000000000000000000000000000000000000000000600052602260045260246000fd5b6000600282049050600182168061372957607f821691505b60208210810361373c5761373b6136e2565b5b50919050565b6000606082019050613757600083018661300c565b6137646020830185613036565b613771604083018461300c565b949350505050565b7f5072696365204d7573742062652041746c656173657420310000000000000000600082015250565b60006137af601883612ed0565b91506137ba82613779565b602082019050919050565b600060208201905081810360008301526137de816137a2565b9050919050565b7f5072696365204d75737420626520457175616c20746f204c697374696e67205060008201527f7269636500000000000000000000000000000000000000000000000000000000602082015250565b6000613841602483612ed0565b915061384c826137e5565b604082019050919050565b6000602082019050818103600083015261387081613834565b9050919050565b600060808201905061388c600083018761300c565b613899602083018661300c565b6138a66040830185613036565b6138b36060830184612e9b565b95945050505050565b7f4e487b7100000000000000000000000000000000000000000000000000000000600052601160045260246000fd5b60006138f682612f77565b915061390183612f77565b9250828201905080821115613919576139186138bc565b5b92915050565b600061392a82612f77565b91507fffffffffffffffffffffffffffffffffffffffffffffffffffffffffffffffff820361395c5761395b6138bc565b5b600182019050919050565b7f4e487b7100000000000000000000000000000000000000000000000000000000600052603260045260246000fd5b7f4f6e6c79206974656d206f776e65722063616e20706572666f726d207468697360008201527f20206f7065726174696f6e000000000000000000000000000000000000000000602082015250565b60006139f2602b83612ed0565b91506139fd82613996565b604082019050919050565b60006020820190508181036000830152613a21816139e5565b9050919050565b6000613a3382612f77565b9150613a3e83612f77565b9250828203905081811115613a5657613a556138bc565b5b92915050565b7f4f6e6c79206f776e6572206f6620746865206d61726b6574706c61636520636160008201527f6e206368616e6765207468652070726963650000000000000000000000000000602082015250565b6000613ab8603283612ed0565b9150613ac382613a5c565b604082019050919050565b60006020820190508181036000830152613ae781613aab565b9050919050565b7f506c65617365205375626d6974207468652061736b696e67205072696365206960008201527f6e206f7264657220636f6d706c65746520746865207075726368617365000000602082015250565b6000613b4a603d83612ed0565b9150613b5582613aee565b604082019050919050565b60006020820190508181036000830152613b7981613b3d565b9050919050565b600081905092915050565b6000613b9682612ec5565b613ba08185613b80565b9350613bb0818560208601612ee1565b80840191505092915050565b6000613bc88285613b8b565b9150613bd48284613b8b565b91508190509392505050565b60008190508160005260206000209050919050565b60006020601f8301049050919050565b600082821b905092915050565b600060088302613c427fffffffffffffffffffffffffffffffffffffffffffffffffffffffffffffffff82613c05565b613c4c8683613c05565b95508019841693508086168417925050509392505050565b6000819050919050565b6000613c89613c84613c7f84612f77565b613c64565b612f77565b9050919050565b6000819050919050565b613ca383613c6e565b613cb7613caf82613c90565b848454613c12565b825550505050565b600090565b613ccc613cbf565b613cd7818484613c9a565b505050565b5b81811015613cfb57613cf0600082613cc4565b600181019050613cdd565b5050565b601f821115613d4057613d1181613be0565b613d1a84613bf5565b81016020851015613d29578190505b613d3d613d3585613bf5565b830182613cdc565b50505b505050565b600082821c905092915050565b6000613d6360001984600802613d45565b1980831691505092915050565b6000613d7c8383613d52565b9150826002028217905092915050565b613d9582612ec5565b67ffffffffffffffff811115613dae57613dad613370565b5b613db88254613711565b613dc3828285613cff565b600060209050601f831160018114613df65760008415613de4578287015190505b613dee8582613d70565b865550613e56565b601f198416613e0486613be0565b60005b82811015613e2c57848901518255600182019150602085019450602081019050613e07565b86831015613e495784890151613e45601f891682613d52565b8355505b6001600288020188555050505b505050505050565b600081519050919050565b600082825260208201905092915050565b6000613e8582613e5e565b613e8f8185613e69565b9350613e9f818560208601612ee1565b613ea881612f0b565b840191505092915050565b6000608082019050613ec8600083018761300c565b613ed5602083018661300c565b613ee26040830185613036565b8181036060830152613ef48184613e7a565b905095945050505050565b600081519050613f0e81612e36565b92915050565b600060208284031215613f2a57613f29612e00565b5b6000613f3884828501613eff565b91505092915050565b6000604082019050613f56600083018561300c565b613f636020830184613036565b9392505050565b7f4e487b7100000000000000000000000000000000000000000000000000000000600052603160045260246000fd5b7f4e487b7100000000000000000000000000000000000000000000000000000000600052601260045260246000fdfea264697066735822122008395d460b3dce7b65a4946ca0268730663a0dbd2275c3903edfb8f5735a87f964736f6c63430008140033",
  "linkReferences": {},
  "deployedLinkReferences": {}
}